{
  "contractName": "AuctionBid",
  "abi": [
    {
      "inputs": [
        {
          "internalType": "uint256",
          "name": "",
          "type": "uint256"
        }
      ],
      "name": "items",
      "outputs": [
        {
          "internalType": "string",
          "name": "bidder",
          "type": "string"
        },
        {
          "internalType": "string",
          "name": "owner",
          "type": "string"
        },
        {
          "internalType": "string",
          "name": "item",
          "type": "string"
        },
        {
          "internalType": "string",
          "name": "itemId",
          "type": "string"
        },
        {
          "internalType": "uint256",
          "name": "basePrice",
          "type": "uint256"
        },
        {
          "internalType": "uint256",
          "name": "currentPrice",
          "type": "uint256"
        },
        {
          "internalType": "uint256",
          "name": "timestamp",
          "type": "uint256"
        }
      ],
      "stateMutability": "view",
      "type": "function",
      "constant": true
    },
    {
      "inputs": [
        {
          "internalType": "string",
          "name": "_bidder",
          "type": "string"
        },
        {
          "internalType": "string",
          "name": "_owner",
          "type": "string"
        },
        {
          "internalType": "string",
          "name": "_item",
          "type": "string"
        },
        {
          "internalType": "string",
          "name": "_itemId",
          "type": "string"
        },
        {
          "internalType": "uint256",
          "name": "_basePrice",
          "type": "uint256"
        },
        {
          "internalType": "uint256",
          "name": "_currentPrice",
          "type": "uint256"
        }
      ],
      "name": "addItem",
      "outputs": [],
      "stateMutability": "nonpayable",
      "type": "function"
    },
    {
      "inputs": [
        {
          "internalType": "string",
          "name": "_itemId",
          "type": "string"
        },
        {
          "internalType": "string",
          "name": "_bidder",
          "type": "string"
        },
        {
          "internalType": "uint256",
          "name": "_newPrice",
          "type": "uint256"
        }
      ],
      "name": "placeBid",
      "outputs": [],
      "stateMutability": "nonpayable",
      "type": "function"
    },
    {
      "inputs": [],
      "name": "getItemCount",
      "outputs": [
        {
          "internalType": "uint256",
          "name": "",
          "type": "uint256"
        }
      ],
      "stateMutability": "view",
      "type": "function",
      "constant": true
    },
    {
      "inputs": [
        {
          "internalType": "uint256",
          "name": "index",
          "type": "uint256"
        }
      ],
      "name": "getItem",
      "outputs": [
        {
          "internalType": "string",
          "name": "bidder",
          "type": "string"
        },
        {
          "internalType": "string",
          "name": "owner",
          "type": "string"
        },
        {
          "internalType": "string",
          "name": "item",
          "type": "string"
        },
        {
          "internalType": "string",
          "name": "itemId",
          "type": "string"
        },
        {
          "internalType": "uint256",
          "name": "basePrice",
          "type": "uint256"
        },
        {
          "internalType": "uint256",
          "name": "currentPrice",
          "type": "uint256"
        },
        {
          "internalType": "uint256",
          "name": "timestamp",
          "type": "uint256"
        }
      ],
      "stateMutability": "view",
      "type": "function",
      "constant": true
    },
    {
      "inputs": [
        {
          "internalType": "string",
          "name": "_bidder",
          "type": "string"
        }
      ],
      "name": "getItemsByBidder",
      "outputs": [
        {
          "internalType": "string[]",
          "name": "itemIds",
          "type": "string[]"
        },
        {
          "internalType": "uint256[]",
          "name": "prices",
          "type": "uint256[]"
        }
      ],
      "stateMutability": "view",
      "type": "function",
      "constant": true
    }
  ],
  "bytecode": "0x608060405234801561001057600080fd5b50611deb806100206000396000f3fe608060405234801561001057600080fd5b50600436106100625760003560e01c80633129e773146100675780637749cf231461009d5780639ca32e8c146100bb578063a1fc26e4146100ec578063bfb231d214610108578063ca01e18d1461013e575b600080fd5b610081600480360381019061007c9190610e9a565b61015a565b6040516100949796959493929190610f66565b60405180910390f35b6100a561047e565b6040516100b29190610ff1565b60405180910390f35b6100d560048036038101906100d09190611141565b61048a565b6040516100e3929190611354565b60405180910390f35b6101066004803603810190610101919061138b565b610736565b005b610122600480360381019061011d9190610e9a565b6109b0565b6040516101359796959493929190610f66565b60405180910390f35b61015860048036038101906101539190611488565b610c22565b005b6060806060806000806000808054905088106101ab576040517f08c379a00000000000000000000000000000000000000000000000000000000081526004016101a29061155f565b60405180910390fd5b60008089815481106101c0576101bf61157f565b5b90600052602060002090600702016040518060e00160405290816000820180546101e9906115dd565b80601f0160208091040260200160405190810160405280929190818152602001828054610215906115dd565b80156102625780601f1061023757610100808354040283529160200191610262565b820191906000526020600020905b81548152906001019060200180831161024557829003601f168201915b5050505050815260200160018201805461027b906115dd565b80601f01602080910402602001604051908101604052809291908181526020018280546102a7906115dd565b80156102f45780601f106102c9576101008083540402835291602001916102f4565b820191906000526020600020905b8154815290600101906020018083116102d757829003601f168201915b5050505050815260200160028201805461030d906115dd565b80601f0160208091040260200160405190810160405280929190818152602001828054610339906115dd565b80156103865780601f1061035b57610100808354040283529160200191610386565b820191906000526020600020905b81548152906001019060200180831161036957829003601f168201915b5050505050815260200160038201805461039f906115dd565b80601f01602080910402602001604051908101604052809291908181526020018280546103cb906115dd565b80156104185780601f106103ed57610100808354040283529160200191610418565b820191906000526020600020905b8154815290600101906020018083116103fb57829003601f168201915b5050505050815260200160048201548152602001600582015481526020016006820154815250509050806000015181602001518260400151836060015184608001518560a001518660c00151975097509750975097509750975050919395979092949650565b60008080549050905090565b6060806000805b600080549050811015610507578480519060200120600082815481106104ba576104b961157f565b5b90600052602060002090600702016000016040516104d891906116b1565b6040518091039020036104f45781806104f0906116f7565b9250505b80806104ff906116f7565b915050610491565b508067ffffffffffffffff81111561052257610521611016565b5b60405190808252806020026020018201604052801561055557816020015b60608152602001906001900390816105405790505b5092508067ffffffffffffffff81111561057257610571611016565b5b6040519080825280602002602001820160405280156105a05781602001602082028036833780820191505090505b5091506000805b60008054905081101561072e578580519060200120600082815481106105d0576105cf61157f565b5b90600052602060002090600702016000016040516105ee91906116b1565b60405180910390200361071b576000818154811061060f5761060e61157f565b5b9060005260206000209060070201600301805461062b906115dd565b80601f0160208091040260200160405190810160405280929190818152602001828054610657906115dd565b80156106a45780601f10610679576101008083540402835291602001916106a4565b820191906000526020600020905b81548152906001019060200180831161068757829003601f168201915b50505050508583815181106106bc576106bb61157f565b5b6020026020010181905250600081815481106106db576106da61157f565b5b906000526020600020906007020160050154848381518110610700576106ff61157f565b5b6020026020010181815250508180610717906116f7565b9250505b8080610726906116f7565b9150506105a7565b505050915091565b600086511161077a576040517f08c379a00000000000000000000000000000000000000000000000000000000081526004016107719061178b565b60405180910390fd5b60008551116107be576040517f08c379a00000000000000000000000000000000000000000000000000000000081526004016107b5906117f7565b60405180910390fd5b6000845111610802576040517f08c379a00000000000000000000000000000000000000000000000000000000081526004016107f990611863565b60405180910390fd5b6000835111610846576040517f08c379a000000000000000000000000000000000000000000000000000000000815260040161083d906118cf565b60405180910390fd5b60008211610889576040517f08c379a000000000000000000000000000000000000000000000000000000000815260040161088090611961565b60405180910390fd5b818110156108cc576040517f08c379a00000000000000000000000000000000000000000000000000000000081526004016108c3906119f3565b60405180910390fd5b60006040518060e00160405280888152602001878152602001868152602001858152602001848152602001838152602001428152509050600081908060018154018082558091505060019003906000526020600020906007020160009091909190915060008201518160000190816109449190611bbf565b50602082015181600101908161095a9190611bbf565b5060408201518160020190816109709190611bbf565b5060608201518160030190816109869190611bbf565b506080820151816004015560a0820151816005015560c08201518160060155505050505050505050565b600081815481106109c057600080fd5b90600052602060002090600702016000915090508060000180546109e3906115dd565b80601f0160208091040260200160405190810160405280929190818152602001828054610a0f906115dd565b8015610a5c5780601f10610a3157610100808354040283529160200191610a5c565b820191906000526020600020905b815481529060010190602001808311610a3f57829003601f168201915b505050505090806001018054610a71906115dd565b80601f0160208091040260200160405190810160405280929190818152602001828054610a9d906115dd565b8015610aea5780601f10610abf57610100808354040283529160200191610aea565b820191906000526020600020905b815481529060010190602001808311610acd57829003601f168201915b505050505090806002018054610aff906115dd565b80601f0160208091040260200160405190810160405280929190818152602001828054610b2b906115dd565b8015610b785780601f10610b4d57610100808354040283529160200191610b78565b820191906000526020600020905b815481529060010190602001808311610b5b57829003601f168201915b505050505090806003018054610b8d906115dd565b80601f0160208091040260200160405190810160405280929190818152602001828054610bb9906115dd565b8015610c065780601f10610bdb57610100808354040283529160200191610c06565b820191906000526020600020905b815481529060010190602001808311610be957829003601f168201915b5050505050908060040154908060050154908060060154905087565b6000835111610c66576040517f08c379a0000000000000000000000000000000000000000000000000000000008152600401610c5d906118cf565b60405180910390fd5b6000825111610caa576040517f08c379a0000000000000000000000000000000000000000000000000000000008152600401610ca19061178b565b60405180910390fd5b60008111610ced576040517f08c379a0000000000000000000000000000000000000000000000000000000008152600401610ce490611d03565b60405180910390fd5b60005b600080549050811015610e4a57838051906020012060008281548110610d1957610d1861157f565b5b9060005260206000209060070201600301604051610d3791906116b1565b604051809103902003610e375760008181548110610d5857610d5761157f565b5b9060005260206000209060070201600501548211610dab576040517f08c379a0000000000000000000000000000000000000000000000000000000008152600401610da290611d95565b60405180910390fd5b8160008281548110610dc057610dbf61157f565b5b9060005260206000209060070201600501819055508260008281548110610dea57610de961157f565b5b90600052602060002090600702016000019081610e079190611bbf565b504260008281548110610e1d57610e1c61157f565b5b906000526020600020906007020160060181905550610e4a565b8080610e42906116f7565b915050610cf0565b50505050565b6000604051905090565b600080fd5b600080fd5b6000819050919050565b610e7781610e64565b8114610e8257600080fd5b50565b600081359050610e9481610e6e565b92915050565b600060208284031215610eb057610eaf610e5a565b5b6000610ebe84828501610e85565b91505092915050565b600081519050919050565b600082825260208201905092915050565b60005b83811015610f01578082015181840152602081019050610ee6565b60008484015250505050565b6000601f19601f8301169050919050565b6000610f2982610ec7565b610f338185610ed2565b9350610f43818560208601610ee3565b610f4c81610f0d565b840191505092915050565b610f6081610e64565b82525050565b600060e0820190508181036000830152610f80818a610f1e565b90508181036020830152610f948189610f1e565b90508181036040830152610fa88188610f1e565b90508181036060830152610fbc8187610f1e565b9050610fcb6080830186610f57565b610fd860a0830185610f57565b610fe560c0830184610f57565b98975050505050505050565b60006020820190506110066000830184610f57565b92915050565b600080fd5b600080fd5b7f4e487b7100000000000000000000000000000000000000000000000000000000600052604160045260246000fd5b61104e82610f0d565b810181811067ffffffffffffffff8211171561106d5761106c611016565b5b80604052505050565b6000611080610e50565b905061108c8282611045565b919050565b600067ffffffffffffffff8211156110ac576110ab611016565b5b6110b582610f0d565b9050602081019050919050565b82818337600083830152505050565b60006110e46110df84611091565b611076565b905082815260208101848484011115611100576110ff611011565b5b61110b8482856110c2565b509392505050565b600082601f8301126111285761112761100c565b5b81356111388482602086016110d1565b91505092915050565b60006020828403121561115757611156610e5a565b5b600082013567ffffffffffffffff81111561117557611174610e5f565b5b61118184828501611113565b91505092915050565b600081519050919050565b600082825260208201905092915050565b6000819050602082019050919050565b600082825260208201905092915050565b60006111d282610ec7565b6111dc81856111b6565b93506111ec818560208601610ee3565b6111f581610f0d565b840191505092915050565b600061120c83836111c7565b905092915050565b6000602082019050919050565b600061122c8261118a565b6112368185611195565b935083602082028501611248856111a6565b8060005b8581101561128457848403895281516112658582611200565b945061127083611214565b925060208a0199505060018101905061124c565b50829750879550505050505092915050565b600081519050919050565b600082825260208201905092915050565b6000819050602082019050919050565b6112cb81610e64565b82525050565b60006112dd83836112c2565b60208301905092915050565b6000602082019050919050565b600061130182611296565b61130b81856112a1565b9350611316836112b2565b8060005b8381101561134757815161132e88826112d1565b9750611339836112e9565b92505060018101905061131a565b5085935050505092915050565b6000604082019050818103600083015261136e8185611221565b9050818103602083015261138281846112f6565b90509392505050565b60008060008060008060c087890312156113a8576113a7610e5a565b5b600087013567ffffffffffffffff8111156113c6576113c5610e5f565b5b6113d289828a01611113565b965050602087013567ffffffffffffffff8111156113f3576113f2610e5f565b5b6113ff89828a01611113565b955050604087013567ffffffffffffffff8111156114205761141f610e5f565b5b61142c89828a01611113565b945050606087013567ffffffffffffffff81111561144d5761144c610e5f565b5b61145989828a01611113565b935050608061146a89828a01610e85565b92505060a061147b89828a01610e85565b9150509295509295509295565b6000806000606084860312156114a1576114a0610e5a565b5b600084013567ffffffffffffffff8111156114bf576114be610e5f565b5b6114cb86828701611113565b935050602084013567ffffffffffffffff8111156114ec576114eb610e5f565b5b6114f886828701611113565b925050604061150986828701610e85565b9150509250925092565b7f496e646578206f7574206f6620626f756e647300000000000000000000000000600082015250565b6000611549601383610ed2565b915061155482611513565b602082019050919050565b600060208201905081810360008301526115788161153c565b9050919050565b7f4e487b7100000000000000000000000000000000000000000000000000000000600052603260045260246000fd5b7f4e487b7100000000000000000000000000000000000000000000000000000000600052602260045260246000fd5b600060028204905060018216806115f557607f821691505b602082108103611608576116076115ae565b5b50919050565b600081905092915050565b60008190508160005260206000209050919050565b6000815461163b816115dd565b611645818661160e565b945060018216600081146116605760018114611675576116a8565b60ff19831686528115158202860193506116a8565b61167e85611619565b60005b838110156116a057815481890152600182019150602081019050611681565b838801955050505b50505092915050565b60006116bd828461162e565b915081905092915050565b7f4e487b7100000000000000000000000000000000000000000000000000000000600052601160045260246000fd5b600061170282610e64565b91507fffffffffffffffffffffffffffffffffffffffffffffffffffffffffffffffff8203611734576117336116c8565b5b600182019050919050565b7f4269646465722063616e6e6f7420626520656d70747900000000000000000000600082015250565b6000611775601683610ed2565b91506117808261173f565b602082019050919050565b600060208201905081810360008301526117a481611768565b9050919050565b7f4f776e65722063616e6e6f7420626520656d7074790000000000000000000000600082015250565b60006117e1601583610ed2565b91506117ec826117ab565b602082019050919050565b60006020820190508181036000830152611810816117d4565b9050919050565b7f4974656d2063616e6e6f7420626520656d707479000000000000000000000000600082015250565b600061184d601483610ed2565b915061185882611817565b602082019050919050565b6000602082019050818103600083015261187c81611840565b9050919050565b7f4974656d49642063616e6e6f7420626520656d70747900000000000000000000600082015250565b60006118b9601683610ed2565b91506118c482611883565b602082019050919050565b600060208201905081810360008301526118e8816118ac565b9050919050565b7f42617365207072696365206d7573742062652067726561746572207468616e2060008201527f3000000000000000000000000000000000000000000000000000000000000000602082015250565b600061194b602183610ed2565b9150611956826118ef565b604082019050919050565b6000602082019050818103600083015261197a8161193e565b9050919050565b7f43757272656e74207072696365206d757374206265206772656174657220746860008201527f616e206f7220657175616c20746f206261736520707269636500000000000000602082015250565b60006119dd603983610ed2565b91506119e882611981565b604082019050919050565b60006020820190508181036000830152611a0c816119d0565b9050919050565b60008190508160005260206000209050919050565b60006020601f8301049050919050565b600082821b905092915050565b600060088302611a757fffffffffffffffffffffffffffffffffffffffffffffffffffffffffffffffff82611a38565b611a7f8683611a38565b95508019841693508086168417925050509392505050565b6000819050919050565b6000611abc611ab7611ab284610e64565b611a97565b610e64565b9050919050565b6000819050919050565b611ad683611aa1565b611aea611ae282611ac3565b848454611a45565b825550505050565b600090565b611aff611af2565b611b0a818484611acd565b505050565b5b81811015611b2e57611b23600082611af7565b600181019050611b10565b5050565b601f821115611b7357611b4481611a13565b611b4d84611a28565b81016020851015611b5c578190505b611b70611b6885611a28565b830182611b0f565b50505b505050565b600082821c905092915050565b6000611b9660001984600802611b78565b1980831691505092915050565b6000611baf8383611b85565b9150826002028217905092915050565b611bc882610ec7565b67ffffffffffffffff811115611be157611be0611016565b5b611beb82546115dd565b611bf6828285611b32565b600060209050601f831160018114611c295760008415611c17578287015190505b611c218582611ba3565b865550611c89565b601f198416611c3786611a13565b60005b82811015611c5f57848901518255600182019150602085019450602081019050611c3a565b86831015611c7c5784890151611c78601f891682611b85565b8355505b6001600288020188555050505b505050505050565b7f42696420616d6f756e74206d7573742062652067726561746572207468616e2060008201527f3000000000000000000000000000000000000000000000000000000000000000602082015250565b6000611ced602183610ed2565b9150611cf882611c91565b604082019050919050565b60006020820190508181036000830152611d1c81611ce0565b9050919050565b7f4e657720626964206d75737420626520686967686572207468616e206375727260008201527f656e742070726963650000000000000000000000000000000000000000000000602082015250565b6000611d7f602983610ed2565b9150611d8a82611d23565b604082019050919050565b60006020820190508181036000830152611dae81611d72565b905091905056fea2646970667358221220346504120955a16cc085ff44ff5a04aaf304fc6c073073a7be4eebfa4dae377064736f6c63430008130033",
  "immutableReferences": {},
  "source": "// SPDX-License-Identifier: MIT\npragma solidity ^0.8.0;\n\ncontract AuctionBid {\n    struct Item {\n        string bidder;\n        string owner;\n        string item;\n        string itemId;\n        uint256 basePrice;\n        uint256 currentPrice;\n        uint256 timestamp;\n    }\n\n    // Array to store all items\n    Item[] public items;\n    \n    function addItem(\n        string memory _bidder,\n        string memory _owner,\n        string memory _item,\n        string memory _itemId,\n        uint256 _basePrice,\n        uint256 _currentPrice\n    ) public {\n        require(bytes(_bidder).length > 0, \"Bidder cannot be empty\");\n        require(bytes(_owner).length > 0, \"Owner cannot be empty\");\n        require(bytes(_item).length > 0, \"Item cannot be empty\");\n        require(bytes(_itemId).length > 0, \"ItemId cannot be empty\");\n        require(_basePrice > 0, \"Base price must be greater than 0\");\n        require(_currentPrice >= _basePrice, \"Current price must be greater than or equal to base price\");\n\n        Item memory newItem = Item({\n            bidder: _bidder,\n            owner: _owner,\n            item: _item,\n            itemId: _itemId,\n            basePrice: _basePrice,\n            currentPrice: _currentPrice,\n            timestamp: block.timestamp\n        });\n\n        items.push(newItem);\n    }\n\n    function placeBid(\n        string memory _itemId,\n        string memory _bidder,\n        uint256 _newPrice\n    ) public {\n        require(bytes(_itemId).length > 0, \"ItemId cannot be empty\");\n        require(bytes(_bidder).length > 0, \"Bidder cannot be empty\");\n        require(_newPrice > 0, \"Bid amount must be greater than 0\");\n\n        // Find the item and update its current price\n        for (uint i = 0; i < items.length; i++) {\n            if (keccak256(bytes(items[i].itemId)) == keccak256(bytes(_itemId))) {\n                require(_newPrice > items[i].currentPrice, \"New bid must be higher than current price\");\n                items[i].currentPrice = _newPrice;\n                items[i].bidder = _bidder;\n                items[i].timestamp = block.timestamp;\n                break;\n            }\n        }\n    }\n\n    function getItemCount() public view returns (uint256) {\n        return items.length;\n    }\n\n    function getItem(uint256 index) public view returns (\n        string memory bidder,\n        string memory owner,\n        string memory item,\n        string memory itemId,\n        uint256 basePrice,\n        uint256 currentPrice,\n        uint256 timestamp\n    ) {\n        require(index < items.length, \"Index out of bounds\");\n        Item memory currentItem = items[index];\n        return (\n            currentItem.bidder,\n            currentItem.owner,\n            currentItem.item,\n            currentItem.itemId,\n            currentItem.basePrice,\n            currentItem.currentPrice,\n            currentItem.timestamp\n        );\n    }\n\n    function getItemsByBidder(string memory _bidder) public view returns (\n        string[] memory itemIds,\n        uint256[] memory prices\n    ) {\n        uint count = 0;\n        for (uint i = 0; i < items.length; i++) {\n            if (keccak256(bytes(items[i].bidder)) == keccak256(bytes(_bidder))) {\n                count++;\n            }\n        }\n\n        itemIds = new string[](count);\n        prices = new uint256[](count);\n        uint currentIndex = 0;\n\n        for (uint i = 0; i < items.length; i++) {\n            if (keccak256(bytes(items[i].bidder)) == keccak256(bytes(_bidder))) {\n                itemIds[currentIndex] = items[i].itemId;\n                prices[currentIndex] = items[i].currentPrice;\n                currentIndex++;\n            }\n        }\n\n        return (itemIds, prices);\n    }\n}\n",
  "sourcePath": "E:\\KITS-BLOCKCHAIN\\KITS-IT-Auction-Blockchain-Project-Final-year\\contracts\\AuctionBid.sol",
  "compiler": {
    "name": "solc",
    "version": "0.8.19+commit.7dd6d404.Emscripten.clang"
  },
  "schemaVersion": "3.4.16",
  "updatedAt": "2025-02-12T10:19:24.980Z",
  "networkType": "ethereum",
  "devdoc": {
    "kind": "dev",
    "methods": {},
    "version": 1
  },
  "userdoc": {
    "kind": "user",
    "methods": {},
    "version": 1
  }
}