{
  "contractName": "AuctionBid",
  "abi": [
    {
      "anonymous": false,
      "inputs": [
        {
          "indexed": true,
          "internalType": "uint256",
          "name": "auctionID",
          "type": "uint256"
        },
        {
          "indexed": true,
          "internalType": "address",
          "name": "bidder",
          "type": "address"
        },
        {
          "indexed": false,
          "internalType": "uint256",
          "name": "amount",
          "type": "uint256"
        },
        {
          "indexed": false,
          "internalType": "uint256",
          "name": "timestamp",
          "type": "uint256"
        }
      ],
      "name": "NewBid",
      "type": "event"
    },
    {
      "inputs": [
        {
          "internalType": "uint256",
          "name": "",
          "type": "uint256"
        },
        {
          "internalType": "uint256",
          "name": "",
          "type": "uint256"
        }
      ],
      "name": "auctionBids",
      "outputs": [
        {
          "internalType": "address",
          "name": "bidder",
          "type": "address"
        },
        {
          "internalType": "uint256",
          "name": "amount",
          "type": "uint256"
        },
        {
          "internalType": "uint256",
          "name": "timestamp",
          "type": "uint256"
        }
      ],
      "stateMutability": "view",
      "type": "function",
      "constant": true
    },
    {
      "inputs": [
        {
          "internalType": "uint256",
          "name": "_auctionID",
          "type": "uint256"
        }
      ],
      "name": "placeBid",
      "outputs": [],
      "stateMutability": "payable",
      "type": "function",
      "payable": true
    },
    {
      "inputs": [
        {
          "internalType": "uint256",
          "name": "_auctionID",
          "type": "uint256"
        }
      ],
      "name": "getBids",
      "outputs": [
        {
          "components": [
            {
              "internalType": "address",
              "name": "bidder",
              "type": "address"
            },
            {
              "internalType": "uint256",
              "name": "amount",
              "type": "uint256"
            },
            {
              "internalType": "uint256",
              "name": "timestamp",
              "type": "uint256"
            }
          ],
          "internalType": "struct AuctionBid.Bid[]",
          "name": "",
          "type": "tuple[]"
        }
      ],
      "stateMutability": "view",
      "type": "function",
      "constant": true
    }
  ],
  "bytecode": "0x608060405234801561001057600080fd5b506106d5806100206000396000f3fe6080604052600436106100345760003560e01c8063131d9a27146100395780635f93de49146100765780639979ef45146100b5575b600080fd5b34801561004557600080fd5b50610060600480360381019061005b91906103ae565b6100d1565b60405161006d919061051c565b60405180910390f35b34801561008257600080fd5b5061009d6004803603810190610098919061053e565b6101ac565b6040516100ac9392919061059c565b60405180910390f35b6100cf60048036038101906100ca91906103ae565b610213565b005b6060600080838152602001908152602001600020805480602002602001604051908101604052809291908181526020016000905b828210156101a157838290600052602060002090600302016040518060600160405290816000820160009054906101000a900473ffffffffffffffffffffffffffffffffffffffff1673ffffffffffffffffffffffffffffffffffffffff1673ffffffffffffffffffffffffffffffffffffffff1681526020016001820154815260200160028201548152505081526020019060010190610105565b505050509050919050565b600060205281600052604060002081815481106101c857600080fd5b9060005260206000209060030201600091509150508060000160009054906101000a900473ffffffffffffffffffffffffffffffffffffffff16908060010154908060020154905083565b60003411610256576040517f08c379a000000000000000000000000000000000000000000000000000000000815260040161024d90610656565b60405180910390fd5b60008082815260200190815260200160002060405180606001604052803373ffffffffffffffffffffffffffffffffffffffff16815260200134815260200142815250908060018154018082558091505060019003906000526020600020906003020160009091909190915060008201518160000160006101000a81548173ffffffffffffffffffffffffffffffffffffffff021916908373ffffffffffffffffffffffffffffffffffffffff160217905550602082015181600101556040820151816002015550503373ffffffffffffffffffffffffffffffffffffffff16817fcde18333b910a25ba5421e992ecee5c314e557346e94ab2ab424658bbb3707e63442604051610368929190610676565b60405180910390a350565b600080fd5b6000819050919050565b61038b81610378565b811461039657600080fd5b50565b6000813590506103a881610382565b92915050565b6000602082840312156103c4576103c3610373565b5b60006103d284828501610399565b91505092915050565b600081519050919050565b600082825260208201905092915050565b6000819050602082019050919050565b600073ffffffffffffffffffffffffffffffffffffffff82169050919050565b600061043282610407565b9050919050565b61044281610427565b82525050565b61045181610378565b82525050565b60608201600082015161046d6000850182610439565b5060208201516104806020850182610448565b5060408201516104936040850182610448565b50505050565b60006104a58383610457565b60608301905092915050565b6000602082019050919050565b60006104c9826103db565b6104d381856103e6565b93506104de836103f7565b8060005b8381101561050f5781516104f68882610499565b9750610501836104b1565b9250506001810190506104e2565b5085935050505092915050565b6000602082019050818103600083015261053681846104be565b905092915050565b6000806040838503121561055557610554610373565b5b600061056385828601610399565b925050602061057485828601610399565b9150509250929050565b61058781610427565b82525050565b61059681610378565b82525050565b60006060820190506105b1600083018661057e565b6105be602083018561058d565b6105cb604083018461058d565b949350505050565b600082825260208201905092915050565b7f42696420616d6f756e74206d7573742062652067726561746572207468616e2060008201527f7a65726f00000000000000000000000000000000000000000000000000000000602082015250565b60006106406024836105d3565b915061064b826105e4565b604082019050919050565b6000602082019050818103600083015261066f81610633565b9050919050565b600060408201905061068b600083018561058d565b610698602083018461058d565b939250505056fea26469706673582212200d833938e59b600350a1e8423803e6115a8fe597eb5659cff4abb087eef9747a64736f6c63430008130033",
  "immutableReferences": {},
  "source": "// SPDX-License-Identifier: MIT\r\npragma solidity ^0.8.0;\r\n\r\ncontract AuctionBid {\r\n    struct Bid {\r\n        address bidder;\r\n        uint256 amount;\r\n        uint256 timestamp;\r\n    }\r\n    \r\n    mapping(uint256 => Bid[]) public auctionBids; // Maps auction ID to list of bids\r\n    \r\n    event NewBid(uint256 indexed auctionID, address indexed bidder, uint256 amount, uint256 timestamp);\r\n    \r\n    function placeBid(uint256 _auctionID) external payable {\r\n        require(msg.value > 0, \"Bid amount must be greater than zero\");\r\n        \r\n        auctionBids[_auctionID].push(Bid({\r\n            bidder: msg.sender,\r\n            amount: msg.value,\r\n            timestamp: block.timestamp\r\n        }));\r\n        \r\n        emit NewBid(_auctionID, msg.sender, msg.value, block.timestamp);\r\n    }\r\n    \r\n    function getBids(uint256 _auctionID) external view returns (Bid[] memory) {\r\n        return auctionBids[_auctionID];\r\n    }\r\n}",
  "sourcePath": "E:\\KITS-BLOCKCHAIN\\KITS-IT-Auction-Blockchain-Project-Final-year\\contracts\\AuctionBid.sol",
  "compiler": {
    "name": "solc",
    "version": "0.8.19+commit.7dd6d404.Emscripten.clang"
  },
  "schemaVersion": "3.4.16",
  "updatedAt": "2025-02-12T05:45:54.914Z",
  "networkType": "ethereum",
  "devdoc": {
    "kind": "dev",
    "methods": {},
    "version": 1
  },
  "userdoc": {
    "kind": "user",
    "methods": {},
    "version": 1
  }
}